{
  "transactions": [
    {
      "hash": "0x65f9d3b1f845fdf40cc76c4d5f5d19c0ecd4648f806b1d70ad3199c5c34e8f7a",
      "transactionType": "CREATE",
      "contractName": "ArtistFacetV2",
      "contractAddress": "0x1661a418957db22e7b63f8b2c628f169be6f70f9",
      "function": null,
      "arguments": null,
      "transaction": {
        "from": "0x51816a1b29569fbb1a56825c375c254742a9c5e1",
        "gas": "0x79b0e",
        "value": "0x0",
        "input": "0x608080604052346015576105f6908161001a8239f35b5f80fdfe60806040526004361015610011575f80fd5b5f3560e01c63818ab20514610024575f80fd5b346103cf575f3660031901126103cf5733156103c057335f9081527fee05f3365cd117b55d3adbf71d16c1f856f98c56af525e45bc6e7698b52fffe4602052604090206004015460ff166103b1577fee05f3365cd117b55d3adbf71d16c1f856f98c56af525e45bc6e7698b52fffe2545f19811461039d57600101807fee05f3365cd117b55d3adbf71d16c1f856f98c56af525e45bc6e7698b52fffe255805f527fee05f3365cd117b55d3adbf71d16c1f856f98c56af525e45bc6e7698b52fffe560205260405f208181556001810160018060a01b0333166bffffffffffffffffffffffff60a01b82541617815560048201600160ff1982541617815561015b3360018060a01b03165f527fee05f3365cd117b55d3adbf71d16c1f856f98c56af525e45bc6e7698b52fffe460205260405f2090565b838103610328575b50835f527fee05f3365cd117b55d3adbf71d16c1f856f98c56af525e45bc6e7698b52fffe560205260405f20918383036102ae575b50505050335f527fee05f3365cd117b55d3adbf71d16c1f856f98c56af525e45bc6e7698b52fffe66020525f60408120557fee05f3365cd117b55d3adbf71d16c1f856f98c56af525e45bc6e7698b52fffe35490600160401b82101561029a5760018201807fee05f3365cd117b55d3adbf71d16c1f856f98c56af525e45bc6e7698b52fffe35582101561028657806040927fee05f3365cd117b55d3adbf71d16c1f856f98c56af525e45bc6e7698b52fffe35f5260205f20015581519033817f6956d91a98210f6b95063726d1b194ca071fd1e6ef504c4add380706f45870305f80a38152336020820152f35b634e487b7160e01b5f52603260045260245ffd5b634e487b7160e01b5f52604160045260245ffd5b83548355546001830180546001600160a01b0319166001600160a01b039290921691909117905561031f926005918291906103179060ff906102f66002808601908901610421565b600384015460038801555416600486019060ff801983541691151516179055565b019101610537565b5f808080610198565b8354815582546001820180546001600160a01b0319166001600160a01b0392909216919091179055610397906103646002808701908301610421565b6003850154600382015561038b60ff845416600483019060ff801983541691151516179055565b60058086019101610537565b5f610163565b634e487b7160e01b5f52601160045260245ffd5b6365c72bad60e01b5f5260045ffd5b63d92e233d60e01b5f5260045ffd5b5f80fd5b90600182811c92168015610401575b60208310146103ed57565b634e487b7160e01b5f52602260045260245ffd5b91607f16916103e2565b818110610416575050565b5f815560010161040b565b9190918281146105325761043583546103d3565b67ffffffffffffffff811161029a5761044e82546103d3565b601f81116104f7575b505f93601f82116001146104915793819293945f92610486575b50508160011b915f199060031b1c1916179055565b015490505f80610471565b601f198216905f5260205f2094835f5260205f20915f5b8181106104df575095836001959697106104c7575b505050811b019055565b01545f1960f88460031b161c191690555f80806104bd565b9192600180602092868b0154815501940192016104a8565b61052290835f5260205f20601f840160051c81019160208510610528575b601f0160051c019061040b565b5f610457565b9091508190610515565b509050565b8181146105bc5781549167ffffffffffffffff831161029a57600160401b831161029a5781548383558084106105a0575b505f5260205f20905f5260205f208154915f925b84841061058a575050505050565b600180919201938454928185015501929061057c565b6105b690835f528460205f20918201910161040b565b5f610568565b505056fea264697066735822122059498c1e5b9083ce09eb06314bcbdf131c4a3a6ef9e460d7049c8c5f198cf0ba64736f6c634300081c0033",
        "nonce": "0xee",
        "chainId": "0x106a"
      },
      "additionalContracts": [],
      "isFixedGasLimit": false
    },
    {
      "hash": "0x7867faeba930ac31e4b0b53f5049719ede04dd9ea3dda0740324e86cd8020557",
      "transactionType": "CALL",
      "contractName": null,
      "contractAddress": "0x353ac4905ba942277575d71ef5da7c0819fbba79",
      "function": "diamondCut((address,uint8,bytes4[])[],address,bytes)",
      "arguments": [
        "[(0x0000000000000000000000000000000000000000, 2, [0xc07147ab]), (0x1661a418957DB22E7B63F8b2C628f169bE6F70f9, 0, [0x818ab205])]",
        "0x0000000000000000000000000000000000000000",
        "0x"
      ],
      "transaction": {
        "from": "0x51816a1b29569fbb1a56825c375c254742a9c5e1",
        "to": "0x353ac4905ba942277575d71ef5da7c0819fbba79",
        "gas": "0x3ffc3",
        "value": "0x0",
        "input": "0x1f931c1c0000000000000000000000000000000000000000000000000000000000000060000000000000000000000000000000000000000000000000000000000000000000000000000000000000000000000000000000000000000000000000000002000000000000000000000000000000000000000000000000000000000000000002000000000000000000000000000000000000000000000000000000000000004000000000000000000000000000000000000000000000000000000000000000e00000000000000000000000000000000000000000000000000000000000000000000000000000000000000000000000000000000000000000000000000000000200000000000000000000000000000000000000000000000000000000000000600000000000000000000000000000000000000000000000000000000000000001c07147ab000000000000000000000000000000000000000000000000000000000000000000000000000000001661a418957db22e7b63f8b2c628f169be6f70f9000000000000000000000000000000000000000000000000000000000000000000000000000000000000000000000000000000000000000000000000000000600000000000000000000000000000000000000000000000000000000000000001818ab205000000000000000000000000000000000000000000000000000000000000000000000000000000000000000000000000000000000000000000000000",
        "nonce": "0xef",
        "chainId": "0x106a"
      },
      "additionalContracts": [],
      "isFixedGasLimit": false
    }
  ],
  "receipts": [
    {
      "status": "0x1",
      "cumulativeGasUsed": "0x68dd8",
      "logs": [],
      "logsBloom": "0x00000000000000000000000000000000000000000000000000000000000000000000000000000000000000000000000000000000000000000000000000000000000000000000000000000000000000000000000000000000000000000000000000000000000000000000000000000000000000000000000000000000000000000000000000000000000000000000000000000000000000000000000000000000000000000000000000000000000000000000000000000000000000000000000000000000000000000000000000000000000000000000000000000000000000000000000000000000000000000000000000000000000000000000000000000000",
      "type": "0x2",
      "transactionHash": "0x65f9d3b1f845fdf40cc76c4d5f5d19c0ecd4648f806b1d70ad3199c5c34e8f7a",
      "transactionIndex": "0x1",
      "blockHash": "0x4be7ddf31fdfade28ee6112c8146cbabfe3926c2ef1234bfbadde39ea7e92de5",
      "blockNumber": "0x1afce06",
      "gasUsed": "0x5d9bc",
      "effectiveGasPrice": "0xfe",
      "from": "0x51816a1b29569fbb1a56825c375c254742a9c5e1",
      "to": null,
      "contractAddress": "0x1661a418957db22e7b63f8b2c628f169be6f70f9",
      "l1BaseFeeScalar": "0x2af8",
      "l1BlobBaseFee": "0x1",
      "l1BlobBaseFeeScalar": "0x109618",
      "l1Fee": "0x9e1",
      "l1GasPrice": "0x9",
      "l1GasUsed": "0x3b2f"
    },
    {
      "status": "0x1",
      "cumulativeGasUsed": "0x949db",
      "logs": [
        {
          "address": "0x353ac4905ba942277575d71ef5da7c0819fbba79",
          "topics": [
            "0x8faa70878671ccd212d20771b795c50af8fd3ff6cf27f4bde57e5d4de0aeb673"
          ],
          "data": "0x0000000000000000000000000000000000000000000000000000000000000060000000000000000000000000000000000000000000000000000000000000000000000000000000000000000000000000000000000000000000000000000002000000000000000000000000000000000000000000000000000000000000000002000000000000000000000000000000000000000000000000000000000000004000000000000000000000000000000000000000000000000000000000000000e00000000000000000000000000000000000000000000000000000000000000000000000000000000000000000000000000000000000000000000000000000000200000000000000000000000000000000000000000000000000000000000000600000000000000000000000000000000000000000000000000000000000000001c07147ab000000000000000000000000000000000000000000000000000000000000000000000000000000001661a418957db22e7b63f8b2c628f169be6f70f9000000000000000000000000000000000000000000000000000000000000000000000000000000000000000000000000000000000000000000000000000000600000000000000000000000000000000000000000000000000000000000000001818ab205000000000000000000000000000000000000000000000000000000000000000000000000000000000000000000000000000000000000000000000000",
          "blockHash": "0x4be7ddf31fdfade28ee6112c8146cbabfe3926c2ef1234bfbadde39ea7e92de5",
          "blockNumber": "0x1afce06",
          "blockTimestamp": "0x69049eec",
          "transactionHash": "0x7867faeba930ac31e4b0b53f5049719ede04dd9ea3dda0740324e86cd8020557",
          "transactionIndex": "0x2",
          "logIndex": "0x0",
          "removed": false
        }
      ],
      "logsBloom": "0x00000000000000000000000000000000000000000000000000000000100000000001000000000000000000000000000000000000000000000000000000000000000000000000000000000000000000000000000001000000000800000000000000000000000000000000000000000000000000000000000000000000000000000020000000000000000000000000000000000000000000000000000000000000000000000000000004000000000000000000000000000000000000000000000000000000000000000000000000000000000000000000000000000000000000000000000000000000000000000000000000000000000000000000000000000000",
      "type": "0x2",
      "transactionHash": "0x7867faeba930ac31e4b0b53f5049719ede04dd9ea3dda0740324e86cd8020557",
      "transactionIndex": "0x2",
      "blockHash": "0x4be7ddf31fdfade28ee6112c8146cbabfe3926c2ef1234bfbadde39ea7e92de5",
      "blockNumber": "0x1afce06",
      "gasUsed": "0x2bc03",
      "effectiveGasPrice": "0xfe",
      "from": "0x51816a1b29569fbb1a56825c375c254742a9c5e1",
      "to": "0x353ac4905ba942277575d71ef5da7c0819fbba79",
      "contractAddress": null,
      "l1BaseFeeScalar": "0x2af8",
      "l1BlobBaseFee": "0x1",
      "l1BlobBaseFeeScalar": "0x109618",
      "l1Fee": "0x158",
      "l1GasPrice": "0x9",
      "l1GasUsed": "0x80e"
    }
  ],
  "libraries": [],
  "pending": [],
  "returns": {},
  "timestamp": 1761910508515,
  "chain": 4202,
  "commit": "783f59f"
}