{
  "transactions": [
    {
      "hash": null,
      "transactionType": "CREATE",
      "contractName": "OwnershipControlFacetV2",
      "contractAddress": "0x2b485d09a9a0919472ee0e3e1b759921841787b3",
      "function": null,
      "arguments": null,
      "transaction": {
        "from": "0x51816a1b29569fbb1a56825c375c254742a9c5e1",
        "gas": "0x75419",
        "value": "0x0",
        "input": "0x608080604052346015576105b6908161001a8239f35b5f80fdfe60806040526004361015610011575f80fd5b5f3560e01c634f89ef9214610024575f80fd5b3461043a57604036600319011261043a5760043567ffffffffffffffff811161043a5761005590369060040161043e565b60243567ffffffffffffffff811161043a5761007590369060040161043e565b7fc8fcad8db84d3cc18b4c41d551ea0ee66dd599cde068d998e57d5e09332c1320546001600160a01b031633036103ff575f5160206105615f395f51905f52546100c76100c1826104a6565b156104de565b6100f860ff7f88c7701221c2edfb3917f7d585e8754a56f369bc182c0bade4c3000c5cab1ccf5460601c16156104de565b82519067ffffffffffffffff82116102e857610113906104a6565b601f811161038b575b50602092601f821160011461030757928192935f926102fc575b50508160011b915f199060031b1c1916175f5160206105615f395f51905f52555b805167ffffffffffffffff81116102e85761017f5f5160206105215f395f51905f52546104a6565b601f8111610279575b50602091601f8211600114610201579181925f926101f6575b50508160011b915f199060031b1c1916175f5160206105215f395f51905f52555b7f88c7701221c2edfb3917f7d585e8754a56f369bc182c0bade4c3000c5cab1ccf805460ff60601b1916600160601b179055005b015190505f806101a1565b601f198216925f5160206105215f395f51905f525f52805f20915f5b85811061026157508360019510610249575b505050811b015f5160206105215f395f51905f52556101c2565b01515f1960f88460031b161c191690555f808061022f565b9192602060018192868501518155019401920161021d565b5f5160206105215f395f51905f525f527f50a5432a1642b6e9c8748d8176abf2a5371544a786325a57d0e92dfb2b0c1c2b601f830160051c810191602084106102de575b601f0160051c01905b8181106102d35750610188565b5f81556001016102c6565b90915081906102bd565b634e487b7160e01b5f52604160045260245ffd5b015190505f80610136565b601f198216935f5160206105615f395f51905f525f525f5160206105415f395f51905f52915f5b868110610373575083600195961061035b575b505050811b015f5160206105615f395f51905f5255610157565b01515f1960f88460031b161c191690555f8080610341565b9192602060018192868501518155019401920161032e565b5f5160206105615f395f51905f525f52601f820160051c5f5160206105415f395f51905f520190602083106103ea575b601f0160051c5f5160206105415f395f51905f5201905b8181106103df575061011c565b5f81556001016103d2565b5f5160206105415f395f51905f5291506103bb565b60405162461bcd60e51b81526020600482015260136024820152722ab730baba3437b934bd32b21031b0b63632b960691b6044820152606490fd5b5f80fd5b81601f8201121561043a5780359067ffffffffffffffff82116102e85760405192601f8301601f19908116603f0116840167ffffffffffffffff8111858210176102e8576040528284526020838301011161043a57815f926020809301838601378301015290565b90600182811c921680156104d4575b60208310146104c057565b634e487b7160e01b5f52602260045260245ffd5b91607f16916104b5565b156104e557565b60405162461bcd60e51b8152602060048201526013602482015272105b1c9958591e481a5b9a5d1a585b1a5e9959606a1b6044820152606490fdfe88c7701221c2edfb3917f7d585e8754a56f369bc182c0bade4c3000c5cab1cc5b9b4d8f767fd2b4dc70ec100e4051aeccc781de85aa0961af3bc1e6bdbdf45e788c7701221c2edfb3917f7d585e8754a56f369bc182c0bade4c3000c5cab1cc4a26469706673582212204e148f30a4814357fdd32b0fd087f3eb7dc0d219da188944af277366d4100b7564736f6c634300081c0033",
        "nonce": "0xf1",
        "chainId": "0x106a"
      },
      "additionalContracts": [],
      "isFixedGasLimit": false
    },
    {
      "hash": null,
      "transactionType": "CALL",
      "contractName": null,
      "contractAddress": "0x353ac4905ba942277575d71ef5da7c0819fbba79",
      "function": "diamondCut((address,uint8,bytes4[])[],address,bytes)",
      "arguments": [
        "[(0x2B485d09a9a0919472eE0E3e1B759921841787B3, 0, [0x4f89ef92])]",
        "0x0000000000000000000000000000000000000000",
        "0x"
      ],
      "transaction": {
        "from": "0x51816a1b29569fbb1a56825c375c254742a9c5e1",
        "to": "0x353ac4905ba942277575d71ef5da7c0819fbba79",
        "gas": "0x381e3",
        "value": "0x0",
        "input": "0x1f931c1c000000000000000000000000000000000000000000000000000000000000006000000000000000000000000000000000000000000000000000000000000000000000000000000000000000000000000000000000000000000000000000000140000000000000000000000000000000000000000000000000000000000000000100000000000000000000000000000000000000000000000000000000000000200000000000000000000000002b485d09a9a0919472ee0e3e1b759921841787b30000000000000000000000000000000000000000000000000000000000000000000000000000000000000000000000000000000000000000000000000000006000000000000000000000000000000000000000000000000000000000000000014f89ef92000000000000000000000000000000000000000000000000000000000000000000000000000000000000000000000000000000000000000000000000",
        "nonce": "0xf2",
        "chainId": "0x106a"
      },
      "additionalContracts": [],
      "isFixedGasLimit": false
    }
  ],
  "receipts": [],
  "libraries": [],
  "pending": [],
  "returns": {},
  "timestamp": 1761967178132,
  "chain": 4202,
  "commit": "9b14bbd"
}